{
  "_format": "hh-sol-artifact-1",
  "contractName": "CinemaMarket",
  "sourceName": "contracts/CinemaMarket.sol",
  "abi": [
    {
      "inputs": [],
      "stateMutability": "nonpayable",
      "type": "constructor"
    },
    {
      "inputs": [],
      "name": "ReentrancyGuardReentrantCall",
      "type": "error"
    },
    {
      "anonymous": false,
      "inputs": [
        {
          "indexed": true,
          "internalType": "uint256",
          "name": "itemID",
          "type": "uint256"
        },
        {
          "indexed": false,
          "internalType": "string",
          "name": "name",
          "type": "string"
        },
        {
          "indexed": true,
          "internalType": "address",
          "name": "nftContract",
          "type": "address"
        },
        {
          "indexed": false,
          "internalType": "address",
          "name": "owner",
          "type": "address"
        }
      ],
      "name": "CinemaCreated",
      "type": "event"
    },
    {
      "anonymous": false,
      "inputs": [
        {
          "indexed": true,
          "internalType": "uint256",
          "name": "itemID",
          "type": "uint256"
        },
        {
          "indexed": true,
          "internalType": "address",
          "name": "nftContract",
          "type": "address"
        },
        {
          "indexed": true,
          "internalType": "uint256",
          "name": "tokenID",
          "type": "uint256"
        },
        {
          "indexed": false,
          "internalType": "address",
          "name": "seller",
          "type": "address"
        },
        {
          "indexed": false,
          "internalType": "address",
          "name": "owner",
          "type": "address"
        },
        {
          "indexed": false,
          "internalType": "uint256",
          "name": "price",
          "type": "uint256"
        },
        {
          "indexed": false,
          "internalType": "bool",
          "name": "sold",
          "type": "bool"
        }
      ],
      "name": "MarketItemCreated",
      "type": "event"
    },
    {
      "anonymous": false,
      "inputs": [
        {
          "indexed": true,
          "internalType": "uint256",
          "name": "itemID",
          "type": "uint256"
        },
        {
          "indexed": true,
          "internalType": "address",
          "name": "nftContract",
          "type": "address"
        },
        {
          "indexed": true,
          "internalType": "uint256",
          "name": "tokenID",
          "type": "uint256"
        },
        {
          "indexed": false,
          "internalType": "address",
          "name": "newOwner",
          "type": "address"
        },
        {
          "indexed": false,
          "internalType": "uint256",
          "name": "price",
          "type": "uint256"
        }
      ],
      "name": "MarketItemSold",
      "type": "event"
    },
    {
      "anonymous": false,
      "inputs": [
        {
          "indexed": true,
          "internalType": "uint256",
          "name": "itemID",
          "type": "uint256"
        },
        {
          "indexed": false,
          "internalType": "string",
          "name": "title",
          "type": "string"
        },
        {
          "indexed": true,
          "internalType": "address",
          "name": "nftContract",
          "type": "address"
        },
        {
          "indexed": false,
          "internalType": "address",
          "name": "owner",
          "type": "address"
        },
        {
          "indexed": false,
          "internalType": "uint256",
          "name": "price",
          "type": "uint256"
        },
        {
          "indexed": false,
          "internalType": "string",
          "name": "ticketURI",
          "type": "string"
        }
      ],
      "name": "TicketCreated",
      "type": "event"
    },
    {
      "inputs": [
        {
          "internalType": "string",
          "name": "tokenName",
          "type": "string"
        }
      ],
      "name": "createCinemaChain",
      "outputs": [
        {
          "internalType": "address",
          "name": "",
          "type": "address"
        }
      ],
      "stateMutability": "nonpayable",
      "type": "function"
    },
    {
      "inputs": [
        {
          "internalType": "address",
          "name": "nftContract",
          "type": "address"
        },
        {
          "internalType": "uint256",
          "name": "tokenID",
          "type": "uint256"
        },
        {
          "internalType": "uint256",
          "name": "price",
          "type": "uint256"
        }
      ],
      "name": "createMarketItem",
      "outputs": [],
      "stateMutability": "nonpayable",
      "type": "function"
    },
    {
      "inputs": [
        {
          "internalType": "address",
          "name": "nftContract",
          "type": "address"
        },
        {
          "internalType": "uint256",
          "name": "tokenID",
          "type": "uint256"
        },
        {
          "internalType": "uint256",
          "name": "price",
          "type": "uint256"
        },
        {
          "internalType": "address",
          "name": "minter",
          "type": "address"
        }
      ],
      "name": "createMarketItemFromNFT",
      "outputs": [],
      "stateMutability": "nonpayable",
      "type": "function"
    },
    {
      "inputs": [
        {
          "internalType": "address",
          "name": "nftContract",
          "type": "address"
        },
        {
          "internalType": "uint256",
          "name": "itemID",
          "type": "uint256"
        }
      ],
      "name": "createMarketSale",
      "outputs": [],
      "stateMutability": "nonpayable",
      "type": "function"
    },
    {
      "inputs": [
        {
          "internalType": "address",
          "name": "cinemaAddress",
          "type": "address"
        },
        {
          "internalType": "string",
          "name": "filmName",
          "type": "string"
        },
        {
          "internalType": "string",
          "name": "ticketURI",
          "type": "string"
        },
        {
          "internalType": "uint256",
          "name": "price",
          "type": "uint256"
        },
        {
          "internalType": "string",
          "name": "screenId",
          "type": "string"
        }
      ],
      "name": "createTicket",
      "outputs": [],
      "stateMutability": "nonpayable",
      "type": "function"
    },
    {
      "inputs": [],
      "name": "fetchCinemaChains",
      "outputs": [
        {
          "components": [
            {
              "internalType": "uint256",
              "name": "itemID",
              "type": "uint256"
            },
            {
              "internalType": "string",
              "name": "name",
              "type": "string"
            },
            {
              "internalType": "address",
              "name": "nftContract",
              "type": "address"
            },
            {
              "internalType": "address payable",
              "name": "owner",
              "type": "address"
            }
          ],
          "internalType": "struct CinemaMarket.CinemaItem[]",
          "name": "",
          "type": "tuple[]"
        }
      ],
      "stateMutability": "view",
      "type": "function"
    },
    {
      "inputs": [],
      "name": "fetchMarketItems",
      "outputs": [
        {
          "components": [
            {
              "internalType": "uint256",
              "name": "itemID",
              "type": "uint256"
            },
            {
              "internalType": "address",
              "name": "nftContract",
              "type": "address"
            },
            {
              "internalType": "uint256",
              "name": "tokenID",
              "type": "uint256"
            },
            {
              "internalType": "address payable",
              "name": "seller",
              "type": "address"
            },
            {
              "internalType": "address payable",
              "name": "owner",
              "type": "address"
            },
            {
              "internalType": "uint256",
              "name": "price",
              "type": "uint256"
            },
            {
              "internalType": "bool",
              "name": "sold",
              "type": "bool"
            }
          ],
          "internalType": "struct CinemaMarket.MarketItem[]",
          "name": "",
          "type": "tuple[]"
        }
      ],
      "stateMutability": "view",
      "type": "function"
    },
    {
      "inputs": [
        {
          "internalType": "string",
          "name": "screenId",
          "type": "string"
        }
      ],
      "name": "fetchTicketsByScreenId",
      "outputs": [
        {
          "components": [
            {
              "internalType": "uint256",
              "name": "itemID",
              "type": "uint256"
            },
            {
              "internalType": "string",
              "name": "title",
              "type": "string"
            },
            {
              "internalType": "address",
              "name": "nftContract",
              "type": "address"
            },
            {
              "internalType": "address payable",
              "name": "owner",
              "type": "address"
            },
            {
              "internalType": "uint256",
              "name": "price",
              "type": "uint256"
            },
            {
              "internalType": "string",
              "name": "screenId",
              "type": "string"
            },
            {
              "internalType": "string",
              "name": "uri",
              "type": "string"
            }
          ],
          "internalType": "struct CinemaMarket.TicketItem[]",
          "name": "",
          "type": "tuple[]"
        }
      ],
      "stateMutability": "view",
      "type": "function"
    },
    {
      "inputs": [
        {
          "internalType": "address",
          "name": "ticketOwner",
          "type": "address"
        }
      ],
      "name": "fetchTicketsForOwner",
      "outputs": [
        {
          "components": [
            {
              "internalType": "uint256",
              "name": "itemID",
              "type": "uint256"
            },
            {
              "internalType": "string",
              "name": "title",
              "type": "string"
            },
            {
              "internalType": "address",
              "name": "nftContract",
              "type": "address"
            },
            {
              "internalType": "address payable",
              "name": "owner",
              "type": "address"
            },
            {
              "internalType": "uint256",
              "name": "price",
              "type": "uint256"
            },
            {
              "internalType": "string",
              "name": "screenId",
              "type": "string"
            },
            {
              "internalType": "string",
              "name": "uri",
              "type": "string"
            }
          ],
          "internalType": "struct CinemaMarket.TicketItem[]",
          "name": "",
          "type": "tuple[]"
        }
      ],
      "stateMutability": "view",
      "type": "function"
    },
    {
      "inputs": [],
      "name": "getNumberOfTickets",
      "outputs": [
        {
          "internalType": "uint256",
          "name": "",
          "type": "uint256"
        }
      ],
      "stateMutability": "view",
      "type": "function"
    },
    {
      "inputs": [],
      "name": "owner",
      "outputs": [
        {
          "internalType": "address payable",
          "name": "",
          "type": "address"
        }
      ],
      "stateMutability": "view",
      "type": "function"
    },
    {
      "inputs": [
        {
          "internalType": "address",
          "name": "usdcAddress",
          "type": "address"
        }
      ],
      "name": "setUSDCAddress",
      "outputs": [],
      "stateMutability": "nonpayable",
      "type": "function"
    }
  ],
  "bytecode": "0x608060405234801561001057600080fd5b506001600055600580546001600160a01b031916331790556138b8806100376000396000f3fe60806040523480156200001157600080fd5b5060043610620000c35760003560e01c80638da5cb5b116200007a5780638da5cb5b146200017a5780639582260a146200018e5780639af1179e14620001a0578063aaf5bfc314620001c6578063b3c1718514620001dd578063c23b139e14620001f457600080fd5b80630f08efe014620000c85780631d6e9fc914620000ea578063384170ea146200010357806358eb2df5146200011c5780635a89fda4146200013357806380368389146200014a575b600080fd5b620000d26200020b565b604051620000e19190620016a4565b60405180910390f35b620000f46200039e565b604051620000e191906200178e565b6200011a6200011436600462001848565b62000558565b005b6200011a6200012d36600462001893565b62000706565b6200011a6200014436600462001974565b62000911565b620001616200015b36600462001a23565b62000b83565b6040516001600160a01b039091168152602001620000e1565b60055462000161906001600160a01b031681565b600354604051908152602001620000e1565b620001b7620001b136600462001a64565b62000cbe565b604051620000e1919062001a89565b6200011a620001d736600462001a64565b62000fa8565b620001b7620001ee36600462001a23565b62001029565b6200011a6200020536600462001b60565b62001350565b6001546002546060919060009062000224908362001ba3565b90506000808267ffffffffffffffff811115620002455762000245620018c9565b604051908082528060200260200182016040528015620002ae57816020015b6040805160e08101825260008082526020808301829052928201819052606082018190526080820181905260a0820181905260c08201528252600019909201910181620002645790505b50905060005b8481101562000395576000818152600760205260409020600401546001600160a01b03166200038c5760008181526007602090815260408083205480845292819020815160e0810183528154815260018201546001600160a01b039081169482019490945260028201549281019290925260038101548316606083015260048101549092166080820152600582015460a0820152600682015460ff16151560c082015284518590879081106200036e576200036e62001bbf565b60200260200101819052508480620003869062001bd5565b95505050505b600101620002b4565b50949350505050565b6060600060045467ffffffffffffffff811115620003c057620003c0620018c9565b6040519080825280602002602001820160405280156200043157816020015b6200041d6040518060800160405280600081526020016060815260200160006001600160a01b0316815260200160006001600160a01b031681525090565b815260200190600190039081620003df5790505b50905060005b600454811015620005525760096000828152602001908152602001600020604051806080016040529081600082015481526020016001820180546200047c9062001bf1565b80601f0160208091040260200160405190810160405280929190818152602001828054620004aa9062001bf1565b8015620004fb5780601f10620004cf57610100808354040283529160200191620004fb565b820191906000526020600020905b815481529060010190602001808311620004dd57829003601f168201915b505050918352505060028201546001600160a01b03908116602083015260039092015490911660409091015282518390839081106200053e576200053e62001bbf565b602090810291909101015260010162000437565b50919050565b620005626200161c565b600180546040805160e0810182528281526001600160a01b0380891660208084019182528385018a81528884166060860190815260006080870181815260a088018d815260c089018381528b84526007909652988220975188559451878b0180549188166001600160a01b031992831617905592516002880155905160038701805491871691841691909117905592516004860180549190951691161790925592516005830155516006909101805491151560ff199092169190911790558254919290620006308362001bd5565b90915550506040516323b872dd60e01b81526001600160a01b038616906323b872dd90620006679085903090899060040162001c27565b600060405180830381600087803b1580156200068257600080fd5b505af115801562000697573d6000803e3d6000fd5b5050604080516001600160a01b03868116825260006020830181905282840189905260608301529151889450918916925084917f045dfa01dcba2b36aba1d3dc4a874f4b0c5d2fbeb8d2c4b34a7d88c8d8f929d19181900360800190a450620007006001600055565b50505050565b620007106200161c565b600180546040805160e0810182528281526001600160a01b038088166020808401918252838501898152336060860190815260006080870181815260a088018c815260c089018381528b84526007909652988220975188559451878b0180549188166001600160a01b031992831617905592516002880155905160038701805491871691841691909117905592516004860180549190951691161790925592516005830155516006909101805491151560ff199092169190911790558254919290620007dc8362001bd5565b909155505060405163a22cb46560e01b8152306004820152600160248201526001600160a01b0385169063a22cb46590604401600060405180830381600087803b1580156200082a57600080fd5b505af11580156200083f573d6000803e3d6000fd5b50506040516323b872dd60e01b81526001600160a01b03871692506323b872dd9150620008759033903090889060040162001c27565b600060405180830381600087803b1580156200089057600080fd5b505af1158015620008a5573d6000803e3d6000fd5b505060408051338152600060208201819052818301879052606082015290518693506001600160a01b038816925084917f045dfa01dcba2b36aba1d3dc4a874f4b0c5d2fbeb8d2c4b34a7d88c8d8f929d1919081900360800190a4506200090c6001600055565b505050565b6200091b6200161c565b60405163a211937760e01b815285906000906001600160a01b0383169063a21193779062000950908890339060040162001c4b565b6020604051808303816000875af115801562000970573d6000803e3d6000fd5b505050506040513d601f19601f8201168201806040525081019062000996919062001c77565b6040805160e08101825282815260208082018a81526001600160a01b038716838501523360608401526080830189905260a0830188905260c083018a905260008581526008909252929020815181559151929350916001820190620009fc908262001ce5565b5060408201516002820180546001600160a01b039283166001600160a01b03199182161790915560608401516003840180549190931691161790556080820151600482015560a0820151600582019062000a57908262001ce5565b5060c0820151600682019062000a6e908262001ce5565b505060068054600092506001600160a01b0316906323b872dd903390309062000a9990600a62001eaf565b62000aa5908a62001ebd565b6040518463ffffffff1660e01b815260040162000ac59392919062001c27565b6020604051808303816000875af115801562000ae5573d6000803e3d6000fd5b505050506040513d601f19601f8201168201806040525081019062000b0b919062001ed7565b9050876001600160a01b0316827f6b1b15f4c94bf4641811466cba69b87b17c093efd844f744f917aeb41b6ebeab8933898b60405162000b4f949392919062001efb565b60405180910390a36003805490600062000b698362001bd5565b919050555050505062000b7c6001600055565b5050505050565b60008082333060405162000b979062001647565b62000ba59392919062001f45565b604051809103906000f08015801562000bc2573d6000803e3d6000fd5b506004546040805160808101825282815260208082018881526001600160a01b03861683850152336060840152600085815260099092529290208151815591519394508493909190600182019062000c1b908262001ce5565b506040828101516002830180546001600160a01b03199081166001600160a01b0393841617909155606090940151600390930180549094169281169290921790925590519083169082907f35cbe5f3ecccefdf0e0af40175ecfd93074ff5e9354380c6c62ac508884f8bed9062000c96908990339062001c4b565b60405180910390a36004805490600062000cb08362001bd5565b909155509195945050505050565b6060600060035467ffffffffffffffff81111562000ce05762000ce0620018c9565b60405190808252806020026020018201604052801562000d1d57816020015b62000d0962001655565b81526020019060019003908162000cff5790505b50905060005b60035481101562000fa1576000818152600860205260409020600301546001600160a01b0380861691160362000f9857600860008281526020019081526020016000206040518060e00160405290816000820154815260200160018201805462000d8d9062001bf1565b80601f016020809104026020016040519081016040528092919081815260200182805462000dbb9062001bf1565b801562000e0c5780601f1062000de05761010080835404028352916020019162000e0c565b820191906000526020600020905b81548152906001019060200180831162000dee57829003601f168201915b505050918352505060028201546001600160a01b03908116602083015260038301541660408201526004820154606082015260058201805460809092019162000e559062001bf1565b80601f016020809104026020016040519081016040528092919081815260200182805462000e839062001bf1565b801562000ed45780601f1062000ea85761010080835404028352916020019162000ed4565b820191906000526020600020905b81548152906001019060200180831162000eb657829003601f168201915b5050505050815260200160068201805462000eef9062001bf1565b80601f016020809104026020016040519081016040528092919081815260200182805462000f1d9062001bf1565b801562000f6e5780601f1062000f425761010080835404028352916020019162000f6e565b820191906000526020600020905b81548152906001019060200180831162000f5057829003601f168201915b50505050508152505082828151811062000f8c5762000f8c62001bbf565b60200260200101819052505b60010162000d23565b5092915050565b6005546001600160a01b03163314620010075760405162461bcd60e51b815260206004820152601860248201527f756e74727573746564206d6573736167652073656e6465720000000000000000604482015260640160405180910390fd5b600680546001600160a01b0319166001600160a01b0392909216919091179055565b6060600060035467ffffffffffffffff8111156200104b576200104b620018c9565b6040519080825280602002602001820160405280156200108857816020015b6200107462001655565b8152602001906001900390816200106a5790505b50905060005b60035481101562000fa1576000818152600860209081526040918290209151620010bd92600501910162001f7a565b6040516020818303038152906040528051906020012084604051602001620010e6919062001ff8565b60405160208183030381529060405280519060200120036200134757600860008281526020019081526020016000206040518060e0016040529081600082015481526020016001820180546200113c9062001bf1565b80601f01602080910402602001604051908101604052809291908181526020018280546200116a9062001bf1565b8015620011bb5780601f106200118f57610100808354040283529160200191620011bb565b820191906000526020600020905b8154815290600101906020018083116200119d57829003601f168201915b505050918352505060028201546001600160a01b039081166020830152600383015416604082015260048201546060820152600582018054608090920191620012049062001bf1565b80601f0160208091040260200160405190810160405280929190818152602001828054620012329062001bf1565b8015620012835780601f10620012575761010080835404028352916020019162001283565b820191906000526020600020905b8154815290600101906020018083116200126557829003601f168201915b505050505081526020016006820180546200129e9062001bf1565b80601f0160208091040260200160405190810160405280929190818152602001828054620012cc9062001bf1565b80156200131d5780601f10620012f1576101008083540402835291602001916200131d565b820191906000526020600020905b815481529060010190602001808311620012ff57829003601f168201915b5050505050815250508282815181106200133b576200133b62001bbf565b60200260200101819052505b6001016200108e565b6200135a6200161c565b60008181526007602052604080822060058101546002820154600480840180546001600160a01b031916331790556006938401805460ff191660011790559254935163095ea7b360e01b81523093810193909352602483018290529093909290916001600160a01b039091169063095ea7b3906044016020604051808303816000875af1158015620013f0573d6000803e3d6000fd5b505050506040513d601f19601f8201168201806040525081019062001416919062001ed7565b6006546000868152600760205260408082206003015490516323b872dd60e01b815293945090926001600160a01b03928316926323b872dd926200146592339290911690899060040162001c27565b6020604051808303816000875af115801562001485573d6000803e3d6000fd5b505050506040513d601f19601f82011682018060405250810190620014ab919062001ed7565b6040516323b872dd60e01b81529091506001600160a01b038716906323b872dd90620014e09030903390889060040162001c27565b600060405180830381600087803b158015620014fb57600080fd5b505af115801562001510573d6000803e3d6000fd5b505060065460008881526007602052604080822060049081015491516323b872dd60e01b81529295506001600160a01b0393841694506323b872dd93620015609392169130916002910162001c27565b6020604051808303816000875af115801562001580573d6000803e3d6000fd5b505050506040513d601f19601f82011682018060405250810190620015a6919062001ed7565b604080513381526020810188905291925085916001600160a01b038a169189917f9789d8d6748e7f3e6c12fe6b244e2765b7e805f6b4b65a2474cad0ca8e788408910160405180910390a460028054906000620016038362001bd5565b91905055505050505050620016186001600055565b5050565b6002600054036200164057604051633ee5aeb560e01b815260040160405180910390fd5b6002600055565b61186c806200201783390190565b6040518060e00160405280600081526020016060815260200160006001600160a01b0316815260200160006001600160a01b031681526020016000815260200160608152602001606081525090565b602080825282518282018190526000919060409081850190868401855b828110156200172d57815180518552868101516001600160a01b039081168887015286820151878701526060808301518216908701526080808301519091169086015260a0808201519086015260c09081015115159085015260e09093019290850190600101620016c1565b5091979650505050505050565b60005b83811015620017575781810151838201526020016200173d565b50506000910152565b600081518084526200177a8160208601602086016200173a565b601f01601f19169290920160200192915050565b600060208083018184528085518083526040925060408601915060408160051b87010184880160005b838110156200181d57603f19898403018552815160808151855288820151818a870152620017e88287018262001760565b838a01516001600160a01b03908116888c015260609485015116939096019290925250509386019390860190600101620017b7565b509098975050505050505050565b80356001600160a01b03811681146200184357600080fd5b919050565b600080600080608085870312156200185f57600080fd5b6200186a856200182b565b9350602085013592506040850135915062001888606086016200182b565b905092959194509250565b600080600060608486031215620018a957600080fd5b620018b4846200182b565b95602085013595506040909401359392505050565b634e487b7160e01b600052604160045260246000fd5b600082601f830112620018f157600080fd5b813567ffffffffffffffff808211156200190f576200190f620018c9565b604051601f8301601f19908116603f011681019082821181831017156200193a576200193a620018c9565b816040528381528660208588010111156200195457600080fd5b836020870160208301376000602085830101528094505050505092915050565b600080600080600060a086880312156200198d57600080fd5b62001998866200182b565b9450602086013567ffffffffffffffff80821115620019b657600080fd5b620019c489838a01620018df565b95506040880135915080821115620019db57600080fd5b620019e989838a01620018df565b945060608801359350608088013591508082111562001a0757600080fd5b5062001a1688828901620018df565b9150509295509295909350565b60006020828403121562001a3657600080fd5b813567ffffffffffffffff81111562001a4e57600080fd5b62001a5c84828501620018df565b949350505050565b60006020828403121562001a7757600080fd5b62001a82826200182b565b9392505050565b600060208083018184528085518083526040925060408601915060408160051b87010184880160005b838110156200181d57603f19898403018552815160e08151855288820151818a87015262001ae38287018262001760565b838a01516001600160a01b03908116888c0152606080860151909116908801526080808501519088015260a08085015188830389830152919350915062001b2b838262001760565b9250505060c0808301519250858203818701525062001b4b818362001760565b96890196945050509086019060010162001ab2565b6000806040838503121562001b7457600080fd5b62001b7f836200182b565b946020939093013593505050565b634e487b7160e01b600052601160045260246000fd5b8181038181111562001bb95762001bb962001b8d565b92915050565b634e487b7160e01b600052603260045260246000fd5b60006001820162001bea5762001bea62001b8d565b5060010190565b600181811c9082168062001c0657607f821691505b6020821081036200055257634e487b7160e01b600052602260045260246000fd5b6001600160a01b039384168152919092166020820152604081019190915260600190565b60408152600062001c60604083018562001760565b905060018060a01b03831660208301529392505050565b60006020828403121562001c8a57600080fd5b5051919050565b601f8211156200090c576000816000526020600020601f850160051c8101602086101562001cbc5750805b601f850160051c820191505b8181101562001cdd5782815560010162001cc8565b505050505050565b815167ffffffffffffffff81111562001d025762001d02620018c9565b62001d1a8162001d13845462001bf1565b8462001c91565b602080601f83116001811462001d52576000841562001d395750858301515b600019600386901b1c1916600185901b17855562001cdd565b600085815260208120601f198616915b8281101562001d835788860151825594840194600190910190840162001d62565b508582101562001da25787850151600019600388901b60f8161c191681555b5050505050600190811b01905550565b600181815b8085111562001df357816000190482111562001dd75762001dd762001b8d565b8085161562001de557918102915b93841c939080029062001db7565b509250929050565b60008262001e0c5750600162001bb9565b8162001e1b5750600062001bb9565b816001811462001e34576002811462001e3f5762001e5f565b600191505062001bb9565b60ff84111562001e535762001e5362001b8d565b50506001821b62001bb9565b5060208310610133831016604e8410600b841016171562001e84575081810a62001bb9565b62001e90838362001db2565b806000190482111562001ea75762001ea762001b8d565b029392505050565b600062001a82838362001dfb565b808202811582820484141762001bb95762001bb962001b8d565b60006020828403121562001eea57600080fd5b8151801515811462001a8257600080fd5b60808152600062001f10608083018762001760565b6001600160a01b038616602084015260408301859052828103606084015262001f3a818562001760565b979650505050505050565b60608152600062001f5a606083018662001760565b6001600160a01b0394851660208401529290931660409091015292915050565b600080835462001f8a8162001bf1565b6001828116801562001fa5576001811462001fbb5762001fec565b60ff198416875282151583028701945062001fec565b8760005260208060002060005b8581101562001fe35781548a82015290840190820162001fc8565b50505082870194505b50929695505050505050565b600082516200200c8184602087016200173a565b919091019291505056fe60806040523480156200001157600080fd5b506040516200186c3803806200186c8339810160408190526200003491620000d1565b828060006200004482826200025c565b5060016200005382826200025c565b5050600980546001600160a01b038086166001600160a01b031992831617909255600a80549285169290911691909117905550600b6200009484826200025c565b5050505062000328565b634e487b7160e01b600052604160045260246000fd5b80516001600160a01b0381168114620000cc57600080fd5b919050565b600080600060608486031215620000e757600080fd5b83516001600160401b0380821115620000ff57600080fd5b818601915086601f8301126200011457600080fd5b8151818111156200012957620001296200009e565b604051601f8201601f19908116603f011681019083821181831017156200015457620001546200009e565b816040528281526020935089848487010111156200017157600080fd5b600091505b8282101562000195578482018401518183018501529083019062000176565b6000848483010152809750505050620001b0818701620000b4565b93505050620001c260408501620000b4565b90509250925092565b600181811c90821680620001e057607f821691505b6020821081036200020157634e487b7160e01b600052602260045260246000fd5b50919050565b601f82111562000257576000816000526020600020601f850160051c81016020861015620002325750805b601f850160051c820191505b8181101562000253578281556001016200023e565b5050505b505050565b81516001600160401b038111156200027857620002786200009e565b6200029081620002898454620001cb565b8462000207565b602080601f831160018114620002c85760008415620002af5750858301515b600019600386901b1c1916600185901b17855562000253565b600085815260208120601f198616915b82811015620002f957888601518255948401946001909101908401620002d8565b5085821015620003185787850151600019600388901b60f8161c191681555b5050505050600190811b01905550565b61153480620003386000396000f3fe608060405234801561001057600080fd5b50600436106101165760003560e01c806370a08231116100a2578063a211937711610071578063a21193771461022c578063a22cb4651461023f578063b88d4fde14610252578063c87b56dd14610265578063e985e9c51461027857600080fd5b806370a08231146101eb57806374aa554e146101fe5780638dd586df1461021157806395d89b411461022457600080fd5b8063095ea7b3116100e9578063095ea7b31461019557806317d7de7c146101aa57806323b872dd146101b257806342842e0e146101c55780636352211e146101d857600080fd5b806301ffc9a71461011b57806306e8337f1461014357806306fdde0314610155578063081812fc1461016a575b600080fd5b61012e610129366004610ead565b61028b565b60405190151581526020015b60405180910390f35b6007545b60405190815260200161013a565b61015d6102b6565b60405161013a9190610f1a565b61017d610178366004610f2d565b610348565b6040516001600160a01b03909116815260200161013a565b6101a86101a3366004610f62565b610371565b005b61015d610380565b6101a86101c0366004610f8c565b61038f565b6101a86101d3366004610f8c565b61041f565b61017d6101e6366004610f2d565b61043f565b6101476101f9366004610fc8565b61044a565b6101a861020c3660046110a2565b610492565b6101a861021f366004611177565b6104ca565b61015d61052e565b61014761023a3660046111be565b61053d565b6101a861024d36600461120c565b61057a565b6101a8610260366004611248565b610585565b61015d610273366004610f2d565b61059c565b61012e6102863660046112c4565b6106ad565b60006001600160e01b03198216632483248360e11b14806102b057506102b0826106db565b92915050565b6060600080546102c5906112ee565b80601f01602080910402602001604051908101604052809291908181526020018280546102f1906112ee565b801561033e5780601f106103135761010080835404028352916020019161033e565b820191906000526020600020905b81548152906001019060200180831161032157829003601f168201915b5050505050905090565b60006103538261072b565b506000828152600460205260409020546001600160a01b03166102b0565b61037c828233610764565b5050565b6060600b80546102c5906112ee565b6001600160a01b0382166103be57604051633250574960e11b8152600060048201526024015b60405180910390fd5b60006103cb838333610771565b9050836001600160a01b0316816001600160a01b031614610419576040516364283d7b60e01b81526001600160a01b03808616600483015260248201849052821660448201526064016103b5565b50505050565b61043a83838360405180602001604052806000815250610585565b505050565b60006102b08261072b565b60006001600160a01b038216610476576040516322718ad960e21b8152600060048201526024016103b5565b506001600160a01b031660009081526003602052604090205490565b60005b825181101561043a576104c18382815181106104b3576104b3611328565b60200260200101518361053d565b50600101610495565b6009546001600160a01b031633146105245760405162461bcd60e51b815260206004820152601860248201527f756e74727573746564206d6573736167652073656e646572000000000000000060448201526064016103b5565b61037c828261086a565b6060600180546102c5906112ee565b60075461054a82826108ba565b610554818461086a565b61055f33600161057a565b6007805490600061056f8361133e565b919050555092915050565b61037c33838361091f565b61059084848461038f565b610419848484846109be565b60606105a78261072b565b50600082815260066020526040812080546105c1906112ee565b80601f01602080910402602001604051908101604052809291908181526020018280546105ed906112ee565b801561063a5780601f1061060f5761010080835404028352916020019161063a565b820191906000526020600020905b81548152906001019060200180831161061d57829003601f168201915b50505050509050600061065860408051602081019091526000815290565b9050805160000361066a575092915050565b81511561069c578082604051602001610684929190611365565b60405160208183030381529060405292505050919050565b6106a584610ae7565b949350505050565b6001600160a01b03918216600090815260056020908152604080832093909416825291909152205460ff1690565b60006001600160e01b031982166380ac58cd60e01b148061070c57506001600160e01b03198216635b5e139f60e01b145b806102b057506301ffc9a760e01b6001600160e01b03198316146102b0565b6000818152600260205260408120546001600160a01b0316806102b057604051637e27328960e01b8152600481018490526024016103b5565b61043a8383836001610b5c565b6000828152600260205260408120546001600160a01b039081169083161561079e5761079e818486610c62565b6001600160a01b038116156107dc576107bb600085600080610b5c565b6001600160a01b038116600090815260036020526040902080546000190190555b6001600160a01b0385161561080b576001600160a01b0385166000908152600360205260409020805460010190555b60008481526002602052604080822080546001600160a01b0319166001600160a01b0389811691821790925591518793918516917fddf252ad1be2c89b69c2b068fc378daa952ba7f163c4a11628f55a4df523b3ef91a4949350505050565b600082815260066020526040902061088282826113e4565b506040518281527ff8e1a15aba9398e019f0b49df1a4fde98ee17ae345cb5f6b5e2c27f5033e8ce79060200160405180910390a15050565b6001600160a01b0382166108e457604051633250574960e11b8152600060048201526024016103b5565b60006108f283836000610771565b90506001600160a01b0381161561043a576040516339e3563760e11b8152600060048201526024016103b5565b6001600160a01b03821661095157604051630b61174360e31b81526001600160a01b03831660048201526024016103b5565b6001600160a01b03838116600081815260056020908152604080832094871680845294825291829020805460ff191686151590811790915591519182527f17307eab39ab6107e8899845ad3d59bd9653f200f220920489ca2b5937696c31910160405180910390a3505050565b6001600160a01b0383163b1561041957604051630a85bd0160e11b81526001600160a01b0384169063150b7a0290610a009033908890879087906004016114a4565b6020604051808303816000875af1925050508015610a3b575060408051601f3d908101601f19168201909252610a38918101906114e1565b60015b610aa4573d808015610a69576040519150601f19603f3d011682016040523d82523d6000602084013e610a6e565b606091505b508051600003610a9c57604051633250574960e11b81526001600160a01b03851660048201526024016103b5565b805181602001fd5b6001600160e01b03198116630a85bd0160e11b14610ae057604051633250574960e11b81526001600160a01b03851660048201526024016103b5565b5050505050565b6060610af28261072b565b506000610b0a60408051602081019091526000815290565b90506000815111610b2a5760405180602001604052806000815250610b55565b80610b3484610cc6565b604051602001610b45929190611365565b6040516020818303038152906040525b9392505050565b8080610b7057506001600160a01b03821615155b15610c32576000610b808461072b565b90506001600160a01b03831615801590610bac5750826001600160a01b0316816001600160a01b031614155b8015610bbf5750610bbd81846106ad565b155b15610be85760405163a9fbf51f60e01b81526001600160a01b03841660048201526024016103b5565b8115610c305783856001600160a01b0316826001600160a01b03167f8c5be1e5ebec7d5bd14f71427d1e84f3dd0314c0f7b2291e5b200ac8c7c3b92560405160405180910390a45b505b5050600090815260046020526040902080546001600160a01b0319166001600160a01b0392909216919091179055565b610c6d838383610d59565b61043a576001600160a01b038316610c9b57604051637e27328960e01b8152600481018290526024016103b5565b60405163177e802f60e01b81526001600160a01b0383166004820152602481018290526044016103b5565b60606000610cd383610dbc565b600101905060008167ffffffffffffffff811115610cf357610cf3610fe3565b6040519080825280601f01601f191660200182016040528015610d1d576020820181803683370190505b5090508181016020015b600019016f181899199a1a9b1b9c1cb0b131b232b360811b600a86061a8153600a8504945084610d2757509392505050565b60006001600160a01b038316158015906106a55750826001600160a01b0316846001600160a01b03161480610d935750610d9384846106ad565b806106a55750506000908152600460205260409020546001600160a01b03908116911614919050565b60008072184f03e93ff9f4daa797ed6e38ed64bf6a1f0160401b8310610dfb5772184f03e93ff9f4daa797ed6e38ed64bf6a1f0160401b830492506040015b6d04ee2d6d415b85acef81000000008310610e27576d04ee2d6d415b85acef8100000000830492506020015b662386f26fc100008310610e4557662386f26fc10000830492506010015b6305f5e1008310610e5d576305f5e100830492506008015b6127108310610e7157612710830492506004015b60648310610e83576064830492506002015b600a83106102b05760010192915050565b6001600160e01b031981168114610eaa57600080fd5b50565b600060208284031215610ebf57600080fd5b8135610b5581610e94565b60005b83811015610ee5578181015183820152602001610ecd565b50506000910152565b60008151808452610f06816020860160208601610eca565b601f01601f19169290920160200192915050565b602081526000610b556020830184610eee565b600060208284031215610f3f57600080fd5b5035919050565b80356001600160a01b0381168114610f5d57600080fd5b919050565b60008060408385031215610f7557600080fd5b610f7e83610f46565b946020939093013593505050565b600080600060608486031215610fa157600080fd5b610faa84610f46565b9250610fb860208501610f46565b9150604084013590509250925092565b600060208284031215610fda57600080fd5b610b5582610f46565b634e487b7160e01b600052604160045260246000fd5b604051601f8201601f1916810167ffffffffffffffff8111828210171561102257611022610fe3565b604052919050565b600067ffffffffffffffff83111561104457611044610fe3565b611057601f8401601f1916602001610ff9565b905082815283838301111561106b57600080fd5b828260208301376000602084830101529392505050565b600082601f83011261109357600080fd5b610b558383356020850161102a565b600080604083850312156110b557600080fd5b823567ffffffffffffffff808211156110cd57600080fd5b818501915085601f8301126110e157600080fd5b81356020828211156110f5576110f5610fe3565b8160051b611104828201610ff9565b928352848101820192828101908a85111561111e57600080fd5b83870192505b8483101561115a5782358681111561113c5760008081fd5b61114a8c86838b0101611082565b8352509183019190830190611124565b975061116a915050878201610f46565b9450505050509250929050565b6000806040838503121561118a57600080fd5b82359150602083013567ffffffffffffffff8111156111a857600080fd5b6111b485828601611082565b9150509250929050565b600080604083850312156111d157600080fd5b823567ffffffffffffffff8111156111e857600080fd5b6111f485828601611082565b92505061120360208401610f46565b90509250929050565b6000806040838503121561121f57600080fd5b61122883610f46565b91506020830135801515811461123d57600080fd5b809150509250929050565b6000806000806080858703121561125e57600080fd5b61126785610f46565b935061127560208601610f46565b925060408501359150606085013567ffffffffffffffff81111561129857600080fd5b8501601f810187136112a957600080fd5b6112b88782356020840161102a565b91505092959194509250565b600080604083850312156112d757600080fd5b6112e083610f46565b915061120360208401610f46565b600181811c9082168061130257607f821691505b60208210810361132257634e487b7160e01b600052602260045260246000fd5b50919050565b634e487b7160e01b600052603260045260246000fd5b60006001820161135e57634e487b7160e01b600052601160045260246000fd5b5060010190565b60008351611377818460208801610eca565b83519083019061138b818360208801610eca565b01949350505050565b601f82111561043a576000816000526020600020601f850160051c810160208610156113bd5750805b601f850160051c820191505b818110156113dc578281556001016113c9565b505050505050565b815167ffffffffffffffff8111156113fe576113fe610fe3565b6114128161140c84546112ee565b84611394565b602080601f831160018114611447576000841561142f5750858301515b600019600386901b1c1916600185901b1785556113dc565b600085815260208120601f198616915b8281101561147657888601518255948401946001909101908401611457565b50858210156114945787850151600019600388901b60f8161c191681555b5050505050600190811b01905550565b6001600160a01b03858116825284166020820152604081018390526080606082018190526000906114d790830184610eee565b9695505050505050565b6000602082840312156114f357600080fd5b8151610b5581610e9456fea26469706673582212207533d9b081a6bd2bd47445c84e3da934ffa436ef02f4671a47a482a1b879102464736f6c63430008180033a2646970667358221220a5783ed85ca59375a8b5feb05cc408346d1c6d35c49763336fadd48f5d94558064736f6c63430008180033",
  "linkReferences": {},
  "deployedLinkReferences": {}
}