{
  "_format": "hh-sol-artifact-1",
  "contractName": "CinemaInfo",
  "sourceName": "contracts/CinemaInfo.sol",
  "abi": [
    {
      "inputs": [],
      "stateMutability": "nonpayable",
      "type": "constructor"
    },
    {
      "anonymous": false,
      "inputs": [
        {
          "indexed": true,
          "internalType": "uint256",
          "name": "id",
          "type": "uint256"
        },
        {
          "indexed": false,
          "internalType": "string",
          "name": "itemID",
          "type": "string"
        },
        {
          "indexed": false,
          "internalType": "string",
          "name": "uri",
          "type": "string"
        }
      ],
      "name": "ActorCreated",
      "type": "event"
    },
    {
      "anonymous": false,
      "inputs": [
        {
          "indexed": true,
          "internalType": "uint256",
          "name": "id",
          "type": "uint256"
        },
        {
          "indexed": false,
          "internalType": "string",
          "name": "itemID",
          "type": "string"
        },
        {
          "indexed": false,
          "internalType": "string",
          "name": "name",
          "type": "string"
        },
        {
          "indexed": false,
          "internalType": "string",
          "name": "uri",
          "type": "string"
        }
      ],
      "name": "CinemaCreated",
      "type": "event"
    },
    {
      "anonymous": false,
      "inputs": [
        {
          "indexed": true,
          "internalType": "uint256",
          "name": "id",
          "type": "uint256"
        },
        {
          "indexed": false,
          "internalType": "string",
          "name": "itemID",
          "type": "string"
        },
        {
          "indexed": false,
          "internalType": "string",
          "name": "title",
          "type": "string"
        },
        {
          "indexed": false,
          "internalType": "string",
          "name": "uri",
          "type": "string"
        }
      ],
      "name": "FilmCreated",
      "type": "event"
    },
    {
      "anonymous": false,
      "inputs": [
        {
          "indexed": true,
          "internalType": "uint256",
          "name": "id",
          "type": "uint256"
        },
        {
          "indexed": false,
          "internalType": "string",
          "name": "itemID",
          "type": "string"
        },
        {
          "indexed": false,
          "internalType": "string",
          "name": "cinemaID",
          "type": "string"
        },
        {
          "indexed": false,
          "internalType": "string",
          "name": "uri",
          "type": "string"
        }
      ],
      "name": "PlaceCreated",
      "type": "event"
    },
    {
      "anonymous": false,
      "inputs": [
        {
          "indexed": true,
          "internalType": "uint256",
          "name": "id",
          "type": "uint256"
        },
        {
          "indexed": false,
          "internalType": "string",
          "name": "itemID",
          "type": "string"
        },
        {
          "indexed": false,
          "internalType": "string",
          "name": "placeID",
          "type": "string"
        },
        {
          "indexed": false,
          "internalType": "string",
          "name": "uri",
          "type": "string"
        }
      ],
      "name": "ScreenCreated",
      "type": "event"
    },
    {
      "inputs": [
        {
          "internalType": "string",
          "name": "actorId",
          "type": "string"
        },
        {
          "internalType": "string",
          "name": "uri",
          "type": "string"
        }
      ],
      "name": "addActor",
      "outputs": [],
      "stateMutability": "nonpayable",
      "type": "function"
    },
    {
      "inputs": [
        {
          "internalType": "string",
          "name": "cinemaId",
          "type": "string"
        },
        {
          "internalType": "string",
          "name": "name",
          "type": "string"
        },
        {
          "internalType": "string",
          "name": "uri",
          "type": "string"
        }
      ],
      "name": "addCinema",
      "outputs": [],
      "stateMutability": "nonpayable",
      "type": "function"
    },
    {
      "inputs": [
        {
          "internalType": "string",
          "name": "filmId",
          "type": "string"
        },
        {
          "internalType": "string",
          "name": "title",
          "type": "string"
        },
        {
          "internalType": "string",
          "name": "uri",
          "type": "string"
        }
      ],
      "name": "addFilm",
      "outputs": [],
      "stateMutability": "nonpayable",
      "type": "function"
    },
    {
      "inputs": [
        {
          "internalType": "string",
          "name": "placeId",
          "type": "string"
        },
        {
          "internalType": "string",
          "name": "cinemaId",
          "type": "string"
        },
        {
          "internalType": "string",
          "name": "uri",
          "type": "string"
        }
      ],
      "name": "addPlace",
      "outputs": [],
      "stateMutability": "nonpayable",
      "type": "function"
    },
    {
      "inputs": [
        {
          "internalType": "string",
          "name": "screenId",
          "type": "string"
        },
        {
          "internalType": "string",
          "name": "placeId",
          "type": "string"
        },
        {
          "internalType": "string",
          "name": "uri",
          "type": "string"
        }
      ],
      "name": "addScreen",
      "outputs": [],
      "stateMutability": "nonpayable",
      "type": "function"
    },
    {
      "inputs": [
        {
          "internalType": "string",
          "name": "actorId",
          "type": "string"
        }
      ],
      "name": "getActor",
      "outputs": [
        {
          "components": [
            {
              "internalType": "string",
              "name": "itemID",
              "type": "string"
            },
            {
              "internalType": "string",
              "name": "uri",
              "type": "string"
            }
          ],
          "internalType": "struct CinemaInfo.ActorItem",
          "name": "",
          "type": "tuple"
        }
      ],
      "stateMutability": "view",
      "type": "function"
    },
    {
      "inputs": [],
      "name": "getAllActors",
      "outputs": [
        {
          "components": [
            {
              "internalType": "string",
              "name": "itemID",
              "type": "string"
            },
            {
              "internalType": "string",
              "name": "uri",
              "type": "string"
            }
          ],
          "internalType": "struct CinemaInfo.ActorItem[]",
          "name": "",
          "type": "tuple[]"
        }
      ],
      "stateMutability": "view",
      "type": "function"
    },
    {
      "inputs": [],
      "name": "getAllCinemas",
      "outputs": [
        {
          "components": [
            {
              "internalType": "string",
              "name": "itemID",
              "type": "string"
            },
            {
              "internalType": "string",
              "name": "name",
              "type": "string"
            },
            {
              "internalType": "string",
              "name": "uri",
              "type": "string"
            },
            {
              "internalType": "address",
              "name": "cinemaAddress",
              "type": "address"
            }
          ],
          "internalType": "struct CinemaInfo.CinemaItem[]",
          "name": "",
          "type": "tuple[]"
        }
      ],
      "stateMutability": "view",
      "type": "function"
    },
    {
      "inputs": [],
      "name": "getAllFilms",
      "outputs": [
        {
          "components": [
            {
              "internalType": "string",
              "name": "itemID",
              "type": "string"
            },
            {
              "internalType": "string",
              "name": "uri",
              "type": "string"
            },
            {
              "internalType": "string",
              "name": "title",
              "type": "string"
            }
          ],
          "internalType": "struct CinemaInfo.FilmItem[]",
          "name": "",
          "type": "tuple[]"
        }
      ],
      "stateMutability": "view",
      "type": "function"
    },
    {
      "inputs": [],
      "name": "getAllPlaces",
      "outputs": [
        {
          "components": [
            {
              "internalType": "string",
              "name": "itemID",
              "type": "string"
            },
            {
              "internalType": "string",
              "name": "uri",
              "type": "string"
            },
            {
              "internalType": "string",
              "name": "cinemaId",
              "type": "string"
            }
          ],
          "internalType": "struct CinemaInfo.PlaceItem[]",
          "name": "",
          "type": "tuple[]"
        }
      ],
      "stateMutability": "view",
      "type": "function"
    },
    {
      "inputs": [
        {
          "internalType": "string",
          "name": "cinemaId",
          "type": "string"
        }
      ],
      "name": "getAllPlacesByCinema",
      "outputs": [
        {
          "components": [
            {
              "internalType": "string",
              "name": "itemID",
              "type": "string"
            },
            {
              "internalType": "string",
              "name": "uri",
              "type": "string"
            },
            {
              "internalType": "string",
              "name": "cinemaId",
              "type": "string"
            }
          ],
          "internalType": "struct CinemaInfo.PlaceItem[]",
          "name": "",
          "type": "tuple[]"
        }
      ],
      "stateMutability": "view",
      "type": "function"
    },
    {
      "inputs": [],
      "name": "getAllScreens",
      "outputs": [
        {
          "components": [
            {
              "internalType": "string",
              "name": "itemID",
              "type": "string"
            },
            {
              "internalType": "string",
              "name": "uri",
              "type": "string"
            },
            {
              "internalType": "string",
              "name": "placeId",
              "type": "string"
            }
          ],
          "internalType": "struct CinemaInfo.ScreenItem[]",
          "name": "",
          "type": "tuple[]"
        }
      ],
      "stateMutability": "view",
      "type": "function"
    },
    {
      "inputs": [
        {
          "internalType": "string",
          "name": "placeId",
          "type": "string"
        }
      ],
      "name": "getAllScreensByPlace",
      "outputs": [
        {
          "components": [
            {
              "internalType": "string",
              "name": "itemID",
              "type": "string"
            },
            {
              "internalType": "string",
              "name": "uri",
              "type": "string"
            },
            {
              "internalType": "string",
              "name": "placeId",
              "type": "string"
            }
          ],
          "internalType": "struct CinemaInfo.ScreenItem[]",
          "name": "",
          "type": "tuple[]"
        }
      ],
      "stateMutability": "view",
      "type": "function"
    },
    {
      "inputs": [
        {
          "internalType": "string",
          "name": "cinemaId",
          "type": "string"
        }
      ],
      "name": "getCinema",
      "outputs": [
        {
          "components": [
            {
              "internalType": "string",
              "name": "itemID",
              "type": "string"
            },
            {
              "internalType": "string",
              "name": "name",
              "type": "string"
            },
            {
              "internalType": "string",
              "name": "uri",
              "type": "string"
            },
            {
              "internalType": "address",
              "name": "cinemaAddress",
              "type": "address"
            }
          ],
          "internalType": "struct CinemaInfo.CinemaItem",
          "name": "",
          "type": "tuple"
        }
      ],
      "stateMutability": "view",
      "type": "function"
    },
    {
      "inputs": [
        {
          "internalType": "string",
          "name": "filmId",
          "type": "string"
        }
      ],
      "name": "getFilm",
      "outputs": [
        {
          "components": [
            {
              "internalType": "string",
              "name": "itemID",
              "type": "string"
            },
            {
              "internalType": "string",
              "name": "uri",
              "type": "string"
            },
            {
              "internalType": "string",
              "name": "title",
              "type": "string"
            }
          ],
          "internalType": "struct CinemaInfo.FilmItem",
          "name": "",
          "type": "tuple"
        }
      ],
      "stateMutability": "view",
      "type": "function"
    },
    {
      "inputs": [
        {
          "internalType": "string",
          "name": "placeId",
          "type": "string"
        }
      ],
      "name": "getPlace",
      "outputs": [
        {
          "components": [
            {
              "internalType": "string",
              "name": "itemID",
              "type": "string"
            },
            {
              "internalType": "string",
              "name": "uri",
              "type": "string"
            },
            {
              "internalType": "string",
              "name": "cinemaId",
              "type": "string"
            }
          ],
          "internalType": "struct CinemaInfo.PlaceItem",
          "name": "",
          "type": "tuple"
        }
      ],
      "stateMutability": "view",
      "type": "function"
    },
    {
      "inputs": [
        {
          "internalType": "string",
          "name": "screenId",
          "type": "string"
        }
      ],
      "name": "getScreen",
      "outputs": [
        {
          "components": [
            {
              "internalType": "string",
              "name": "itemID",
              "type": "string"
            },
            {
              "internalType": "string",
              "name": "uri",
              "type": "string"
            },
            {
              "internalType": "string",
              "name": "placeId",
              "type": "string"
            }
          ],
          "internalType": "struct CinemaInfo.ScreenItem",
          "name": "",
          "type": "tuple"
        }
      ],
      "stateMutability": "view",
      "type": "function"
    },
    {
      "inputs": [
        {
          "internalType": "address",
          "name": "market",
          "type": "address"
        }
      ],
      "name": "setMarket",
      "outputs": [],
      "stateMutability": "nonpayable",
      "type": "function"
    },
    {
      "inputs": [],
      "name": "totalNumberOfActors",
      "outputs": [
        {
          "internalType": "uint256",
          "name": "",
          "type": "uint256"
        }
      ],
      "stateMutability": "view",
      "type": "function"
    },
    {
      "inputs": [],
      "name": "totalNumberOfCinemas",
      "outputs": [
        {
          "internalType": "uint256",
          "name": "",
          "type": "uint256"
        }
      ],
      "stateMutability": "view",
      "type": "function"
    },
    {
      "inputs": [],
      "name": "totalNumberOfFilms",
      "outputs": [
        {
          "internalType": "uint256",
          "name": "",
          "type": "uint256"
        }
      ],
      "stateMutability": "view",
      "type": "function"
    },
    {
      "inputs": [],
      "name": "totalNumberOfPlaces",
      "outputs": [
        {
          "internalType": "uint256",
          "name": "",
          "type": "uint256"
        }
      ],
      "stateMutability": "view",
      "type": "function"
    },
    {
      "inputs": [],
      "name": "totalNumberOfScreens",
      "outputs": [
        {
          "internalType": "uint256",
          "name": "",
          "type": "uint256"
        }
      ],
      "stateMutability": "view",
      "type": "function"
    },
    {
      "inputs": [
        {
          "internalType": "string",
          "name": "actorId",
          "type": "string"
        },
        {
          "internalType": "string",
          "name": "uri",
          "type": "string"
        }
      ],
      "name": "updateActorUri",
      "outputs": [],
      "stateMutability": "nonpayable",
      "type": "function"
    },
    {
      "inputs": [
        {
          "internalType": "string",
          "name": "cinemaId",
          "type": "string"
        },
        {
          "internalType": "string",
          "name": "uri",
          "type": "string"
        }
      ],
      "name": "updateCinemaUri",
      "outputs": [],
      "stateMutability": "nonpayable",
      "type": "function"
    },
    {
      "inputs": [
        {
          "internalType": "string",
          "name": "filmId",
          "type": "string"
        },
        {
          "internalType": "string",
          "name": "uri",
          "type": "string"
        }
      ],
      "name": "updateFilmUri",
      "outputs": [],
      "stateMutability": "nonpayable",
      "type": "function"
    },
    {
      "inputs": [
        {
          "internalType": "string",
          "name": "placeId",
          "type": "string"
        },
        {
          "internalType": "string",
          "name": "uri",
          "type": "string"
        }
      ],
      "name": "updatePlaceUri",
      "outputs": [],
      "stateMutability": "nonpayable",
      "type": "function"
    },
    {
      "inputs": [
        {
          "internalType": "string",
          "name": "screenId",
          "type": "string"
        },
        {
          "internalType": "string",
          "name": "uri",
          "type": "string"
        }
      ],
      "name": "updateScreenUri",
      "outputs": [],
      "stateMutability": "nonpayable",
      "type": "function"
    }
  ],
  "bytecode": "0x608060405234801561001057600080fd5b50600b80546001600160a01b03191633179055613270806100326000396000f3fe608060405234801561001057600080fd5b50600436106101c45760003560e01c8063a84eb754116100f9578063da35fa7d11610097578063ef97c24e11610071578063ef97c24e146103a7578063f1096a72146103ba578063f397ba84146103cd578063f450b5a3146103e057600080fd5b8063da35fa7d1461036c578063dccd9f0614610381578063e0153e9f1461039457600080fd5b8063c367ed29116100d3578063c367ed2914610336578063c3b18b0b14610349578063c539aa1114610351578063cee15b2c1461035957600080fd5b8063a84eb754146102ee578063ae3ba65b1461030e578063af865aea1461032357600080fd5b80635cd739a3116101665780637b8719e8116101405780637b8719e8146102a057806387ba3e26146102b35780639332071b146102d3578063a411fe05146102db57600080fd5b80635cd739a3146102655780636dcea85f146102785780636faa04691461028b57600080fd5b80631cf2339c116101a25780631cf2339c1461020a5780631d010ed51461022a578063362839e41461023f5780633a4755d11461025257600080fd5b806302516249146101c95780630d28dd79146101de578063133fd549146101f5575b600080fd5b6101dc6101d7366004612b21565b6103e8565b005b6008545b6040519081526020015b60405180910390f35b6101fd6104d1565b6040516101ec9190612c26565b61021d610218366004612c8a565b61077c565b6040516101ec9190612d2e565b610232610a58565b6040516101ec9190612d76565b6101fd61024d366004612c8a565b610c62565b6101dc610260366004612b21565b610f9e565b6101dc610273366004612b21565b61107d565b6101dc610286366004612de5565b61113d565b6102936111b9565b6040516101ec9190612e02565b6101dc6102ae366004612b21565b61145f565b6102c66102c1366004612c8a565b61151d565b6040516101ec9190612e59565b600a546101e2565b6101dc6102e9366004612b21565b6117d4565b6103016102fc366004612c8a565b611893565b6040516101ec9190612e6c565b610316611a1f565b6040516101ec9190612e7f565b6102c6610331366004612c8a565b611cea565b6101dc610344366004612ed6565b611dca565b6009546101e2565b6007546101e2565b6102c6610367366004612c8a565b611f2e565b610374612010565b6040516101ec9190612f5e565b61037461038f366004612c8a565b6122b4565b6101dc6103a2366004612ed6565b6125e8565b6101dc6103b5366004612ed6565b6126a9565b6101dc6103c8366004612ed6565b612835565b6101dc6103db366004612b21565b6129c1565b6006546101e2565b816040516020016103f99190612fb5565b6040516020818303038152906040528051906020012060038360405161041f9190612fb5565b9081526040516020918190038201812061043b92909101613005565b604051602081830303815290604052805190602001201461049a5760405162461bcd60e51b8152602060048201526014602482015273141b1858d948191bd95cc81b9bdd08195e1a5cdd60621b60448201526064015b60405180910390fd5b60006003836040516104ac9190612fb5565b9081526040519081900360200190209050600181016104cb83826130cc565b50505050565b60085460609060008167ffffffffffffffff8111156104f2576104f2612a7e565b60405190808252806020026020018201604052801561054757816020015b61053460405180606001604052806060815260200160608152602001606081525090565b8152602001906001900390816105105790505b50905060005b828110156107755760036008828154811061056a5761056a61318c565b906000526020600020016040516105819190613005565b90815260200160405180910390206040518060600160405290816000820180546105aa90612fd1565b80601f01602080910402602001604051908101604052809291908181526020018280546105d690612fd1565b80156106235780601f106105f857610100808354040283529160200191610623565b820191906000526020600020905b81548152906001019060200180831161060657829003601f168201915b5050505050815260200160018201805461063c90612fd1565b80601f016020809104026020016040519081016040528092919081815260200182805461066890612fd1565b80156106b55780601f1061068a576101008083540402835291602001916106b5565b820191906000526020600020905b81548152906001019060200180831161069857829003601f168201915b505050505081526020016002820180546106ce90612fd1565b80601f01602080910402602001604051908101604052809291908181526020018280546106fa90612fd1565b80156107475780601f1061071c57610100808354040283529160200191610747565b820191906000526020600020905b81548152906001019060200180831161072a57829003601f168201915b5050505050815250508282815181106107625761076261318c565b602090810291909101015260010161054d565b5092915050565b6107b0604051806080016040528060608152602001606081526020016060815260200160006001600160a01b031681525090565b816040516020016107c19190612fb5565b604051602081830303815290604052805190602001206001836040516107e79190612fb5565b9081526040516020918190038201812061080392909101613005565b604051602081830303815290604052805190602001201461085e5760405162461bcd60e51b815260206004820152601560248201527410da5b995b5848191bd95cc81b9bdd08195e1a5cdd605a1b6044820152606401610491565b60018260405161086e9190612fb5565b908152602001604051809103902060405180608001604052908160008201805461089790612fd1565b80601f01602080910402602001604051908101604052809291908181526020018280546108c390612fd1565b80156109105780601f106108e557610100808354040283529160200191610910565b820191906000526020600020905b8154815290600101906020018083116108f357829003601f168201915b5050505050815260200160018201805461092990612fd1565b80601f016020809104026020016040519081016040528092919081815260200182805461095590612fd1565b80156109a25780601f10610977576101008083540402835291602001916109a2565b820191906000526020600020905b81548152906001019060200180831161098557829003601f168201915b505050505081526020016002820180546109bb90612fd1565b80601f01602080910402602001604051908101604052809291908181526020018280546109e790612fd1565b8015610a345780601f10610a0957610100808354040283529160200191610a34565b820191906000526020600020905b815481529060010190602001808311610a1757829003601f168201915b5050509183525050600391909101546001600160a01b031660209091015292915050565b600a5460609060009067ffffffffffffffff811115610a7957610a79612a7e565b604051908082528060200260200182016040528015610abe57816020015b6040805180820190915260608082526020820152815260200190600190039081610a975790505b50905060005b600a54811015610c5c576005600a8281548110610ae357610ae361318c565b90600052602060002001604051610afa9190613005565b9081526020016040518091039020604051806040016040529081600082018054610b2390612fd1565b80601f0160208091040260200160405190810160405280929190818152602001828054610b4f90612fd1565b8015610b9c5780601f10610b7157610100808354040283529160200191610b9c565b820191906000526020600020905b815481529060010190602001808311610b7f57829003601f168201915b50505050508152602001600182018054610bb590612fd1565b80601f0160208091040260200160405190810160405280929190818152602001828054610be190612fd1565b8015610c2e5780601f10610c0357610100808354040283529160200191610c2e565b820191906000526020600020905b815481529060010190602001808311610c1157829003601f168201915b505050505081525050828281518110610c4957610c4961318c565b6020908102919091010152600101610ac4565b50919050565b60085460609060008167ffffffffffffffff811115610c8357610c83612a7e565b604051908082528060200260200182016040528015610cd857816020015b610cc560405180606001604052806060815260200160608152602001606081525090565b815260200190600190039081610ca15790505b50905060005b82811015610f965784604051602001610cf79190612fb5565b60405160208183030381529060405280519060200120600360088381548110610d2257610d2261318c565b90600052602060002001604051610d399190613005565b9081526020016040518091039020600201604051602001610d5a9190613005565b6040516020818303038152906040528051906020012003610f8e57600360088281548110610d8a57610d8a61318c565b90600052602060002001604051610da19190613005565b9081526020016040518091039020604051806060016040529081600082018054610dca90612fd1565b80601f0160208091040260200160405190810160405280929190818152602001828054610df690612fd1565b8015610e435780601f10610e1857610100808354040283529160200191610e43565b820191906000526020600020905b815481529060010190602001808311610e2657829003601f168201915b50505050508152602001600182018054610e5c90612fd1565b80601f0160208091040260200160405190810160405280929190818152602001828054610e8890612fd1565b8015610ed55780601f10610eaa57610100808354040283529160200191610ed5565b820191906000526020600020905b815481529060010190602001808311610eb857829003601f168201915b50505050508152602001600282018054610eee90612fd1565b80601f0160208091040260200160405190810160405280929190818152602001828054610f1a90612fd1565b8015610f675780601f10610f3c57610100808354040283529160200191610f67565b820191906000526020600020905b815481529060010190602001808311610f4a57829003601f168201915b505050505081525050828281518110610f8257610f8261318c565b60200260200101819052505b600101610cde565b509392505050565b81604051602001610faf9190612fb5565b60405160208183030381529060405280519060200120600183604051610fd59190612fb5565b90815260405160209181900382018120610ff192909101613005565b604051602081830303815290604052805190602001201461104c5760405162461bcd60e51b815260206004820152601560248201527410da5b995b5848191bd95cc81b9bdd08195e1a5cdd605a1b6044820152606401610491565b600060018360405161105e9190612fb5565b9081526040519081900360200190209050600281016104cb83826130cc565b8160405160200161108e9190612fb5565b604051602081830303815290604052805190602001206002836040516110b49190612fb5565b908152604051602091819003820181206110d092909101613005565b604051602081830303815290604052805190602001201461112b5760405162461bcd60e51b815260206004820152601560248201527414d8dc99595b88191bd95cc81b9bdd08195e1a5cdd605a1b6044820152606401610491565b60006002836040516104ac9190612fb5565b600b546001600160a01b031633146111975760405162461bcd60e51b815260206004820152601860248201527f756e74727573746564206d6573736167652073656e64657200000000000000006044820152606401610491565b600080546001600160a01b0319166001600160a01b0392909216919091179055565b60095460609060009067ffffffffffffffff8111156111da576111da612a7e565b60405190808252806020026020018201604052801561122f57816020015b61121c60405180606001604052806060815260200160608152602001606081525090565b8152602001906001900390816111f85790505b50905060005b600954811015610c5c576004600982815481106112545761125461318c565b9060005260206000200160405161126b9190613005565b908152602001604051809103902060405180606001604052908160008201805461129490612fd1565b80601f01602080910402602001604051908101604052809291908181526020018280546112c090612fd1565b801561130d5780601f106112e25761010080835404028352916020019161130d565b820191906000526020600020905b8154815290600101906020018083116112f057829003601f168201915b5050505050815260200160018201805461132690612fd1565b80601f016020809104026020016040519081016040528092919081815260200182805461135290612fd1565b801561139f5780601f106113745761010080835404028352916020019161139f565b820191906000526020600020905b81548152906001019060200180831161138257829003601f168201915b505050505081526020016002820180546113b890612fd1565b80601f01602080910402602001604051908101604052809291908181526020018280546113e490612fd1565b80156114315780601f1061140657610100808354040283529160200191611431565b820191906000526020600020905b81548152906001019060200180831161141457829003601f168201915b50505050508152505082828151811061144c5761144c61318c565b6020908102919091010152600101611235565b816040516020016114709190612fb5565b604051602081830303815290604052805190602001206004836040516114969190612fb5565b908152604051602091819003820181206114b292909101613005565b604051602081830303815290604052805190602001201461150b5760405162461bcd60e51b8152602060048201526013602482015272119a5b1b48191bd95cc81b9bdd08195e1a5cdd606a1b6044820152606401610491565b60006004836040516104ac9190612fb5565b61154160405180606001604052806060815260200160608152602001606081525090565b816040516020016115529190612fb5565b604051602081830303815290604052805190602001206003836040516115789190612fb5565b9081526040516020918190038201812061159492909101613005565b60405160208183030381529060405280519060200120146115ee5760405162461bcd60e51b8152602060048201526014602482015273141b1858d948191bd95cc81b9bdd08195e1a5cdd60621b6044820152606401610491565b6003826040516115fe9190612fb5565b908152602001604051809103902060405180606001604052908160008201805461162790612fd1565b80601f016020809104026020016040519081016040528092919081815260200182805461165390612fd1565b80156116a05780601f10611675576101008083540402835291602001916116a0565b820191906000526020600020905b81548152906001019060200180831161168357829003601f168201915b505050505081526020016001820180546116b990612fd1565b80601f01602080910402602001604051908101604052809291908181526020018280546116e590612fd1565b80156117325780601f1061170757610100808354040283529160200191611732565b820191906000526020600020905b81548152906001019060200180831161171557829003601f168201915b5050505050815260200160028201805461174b90612fd1565b80601f016020809104026020016040519081016040528092919081815260200182805461177790612fd1565b80156117c45780601f10611799576101008083540402835291602001916117c4565b820191906000526020600020905b8154815290600101906020018083116117a757829003601f168201915b5050505050815250509050919050565b816040516020016117e59190612fb5565b6040516020818303038152906040528051906020012060058360405161180b9190612fb5565b9081526040516020918190038201812061182792909101613005565b60405160208183030381529060405280519060200120146118815760405162461bcd60e51b81526020600482015260146024820152731058dd1bdc88191bd95cc81b9bdd08195e1a5cdd60621b6044820152606401610491565b60006005836040516104ac9190612fb5565b6040805180820190915260608082526020820152816040516020016118b89190612fb5565b604051602081830303815290604052805190602001206005836040516118de9190612fb5565b908152604051602091819003820181206118fa92909101613005565b60405160208183030381529060405280519060200120146119545760405162461bcd60e51b81526020600482015260146024820152731058dd1bdc88191bd95cc81b9bdd08195e1a5cdd60621b6044820152606401610491565b6005826040516119649190612fb5565b908152602001604051809103902060405180604001604052908160008201805461198d90612fd1565b80601f01602080910402602001604051908101604052809291908181526020018280546119b990612fd1565b8015611a065780601f106119db57610100808354040283529160200191611a06565b820191906000526020600020905b8154815290600101906020018083116119e957829003601f168201915b5050505050815260200160018201805461174b90612fd1565b60065460609060008167ffffffffffffffff811115611a4057611a40612a7e565b604051908082528060200260200182016040528015611aa557816020015b611a92604051806080016040528060608152602001606081526020016060815260200160006001600160a01b031681525090565b815260200190600190039081611a5e5790505b50905060005b8281101561077557600160068281548110611ac857611ac861318c565b90600052602060002001604051611adf9190613005565b9081526020016040518091039020604051806080016040529081600082018054611b0890612fd1565b80601f0160208091040260200160405190810160405280929190818152602001828054611b3490612fd1565b8015611b815780601f10611b5657610100808354040283529160200191611b81565b820191906000526020600020905b815481529060010190602001808311611b6457829003601f168201915b50505050508152602001600182018054611b9a90612fd1565b80601f0160208091040260200160405190810160405280929190818152602001828054611bc690612fd1565b8015611c135780601f10611be857610100808354040283529160200191611c13565b820191906000526020600020905b815481529060010190602001808311611bf657829003601f168201915b50505050508152602001600282018054611c2c90612fd1565b80601f0160208091040260200160405190810160405280929190818152602001828054611c5890612fd1565b8015611ca55780601f10611c7a57610100808354040283529160200191611ca5565b820191906000526020600020905b815481529060010190602001808311611c8857829003601f168201915b5050509183525050600391909101546001600160a01b03166020909101528251839083908110611cd757611cd761318c565b6020908102919091010152600101611aab565b611d0e60405180606001604052806060815260200160608152602001606081525090565b81604051602001611d1f9190612fb5565b60405160208183030381529060405280519060200120600483604051611d459190612fb5565b90815260405160209181900382018120611d6192909101613005565b6040516020818303038152906040528051906020012014611dba5760405162461bcd60e51b8152602060048201526013602482015272119a5b1b48191bd95cc81b9bdd08195e1a5cdd606a1b6044820152606401610491565b6004826040516115fe9190612fb5565b6000600184604051611ddc9190612fb5565b908152604051908190036020019020905080611df885826130cc565b5060018101611e0784826130cc565b5060028101611e1683826130cc565b50600680546001810182556000919091527ff652222313e28459528d920b65115c16c04f3efc82aaedc97be59f3f377c0d3f01611e5385826130cc565b50600054604051638036838960e01b81526001600160a01b0390911690638036838990611e849086906004016131a2565b6020604051808303816000875af1158015611ea3573d6000803e3d6000fd5b505050506040513d601f19601f82011682018060405250810190611ec791906131b5565b6003820180546001600160a01b0319166001600160a01b03929092169190911790556006546040517f5c26a99144f636b193e393dcd9e7b6a49a6ad716c2e097e7f18a3064e10ba0d390611f20908790879087906131d2565b60405180910390a250505050565b611f5260405180606001604052806060815260200160608152602001606081525090565b81604051602001611f639190612fb5565b60405160208183030381529060405280519060200120600283604051611f899190612fb5565b90815260405160209181900382018120611fa592909101613005565b60405160208183030381529060405280519060200120146120005760405162461bcd60e51b815260206004820152601560248201527414d8dc99595b88191bd95cc81b9bdd08195e1a5cdd605a1b6044820152606401610491565b6002826040516115fe9190612fb5565b60075460609060008167ffffffffffffffff81111561203157612031612a7e565b60405190808252806020026020018201604052801561208657816020015b61207360405180606001604052806060815260200160608152602001606081525090565b81526020019060019003908161204f5790505b50905060005b82811015610775576002600782815481106120a9576120a961318c565b906000526020600020016040516120c09190613005565b90815260200160405180910390206040518060600160405290816000820180546120e990612fd1565b80601f016020809104026020016040519081016040528092919081815260200182805461211590612fd1565b80156121625780601f1061213757610100808354040283529160200191612162565b820191906000526020600020905b81548152906001019060200180831161214557829003601f168201915b5050505050815260200160018201805461217b90612fd1565b80601f01602080910402602001604051908101604052809291908181526020018280546121a790612fd1565b80156121f45780601f106121c9576101008083540402835291602001916121f4565b820191906000526020600020905b8154815290600101906020018083116121d757829003601f168201915b5050505050815260200160028201805461220d90612fd1565b80601f016020809104026020016040519081016040528092919081815260200182805461223990612fd1565b80156122865780601f1061225b57610100808354040283529160200191612286565b820191906000526020600020905b81548152906001019060200180831161226957829003601f168201915b5050505050815250508282815181106122a1576122a161318c565b602090810291909101015260010161208c565b60075460609060008167ffffffffffffffff8111156122d5576122d5612a7e565b60405190808252806020026020018201604052801561232a57816020015b61231760405180606001604052806060815260200160608152602001606081525090565b8152602001906001900390816122f35790505b50905060005b82811015610f9657846040516020016123499190612fb5565b604051602081830303815290604052805190602001206002600783815481106123745761237461318c565b9060005260206000200160405161238b9190613005565b90815260200160405180910390206002016040516020016123ac9190613005565b60405160208183030381529060405280519060200120036125e0576002600782815481106123dc576123dc61318c565b906000526020600020016040516123f39190613005565b908152602001604051809103902060405180606001604052908160008201805461241c90612fd1565b80601f016020809104026020016040519081016040528092919081815260200182805461244890612fd1565b80156124955780601f1061246a57610100808354040283529160200191612495565b820191906000526020600020905b81548152906001019060200180831161247857829003601f168201915b505050505081526020016001820180546124ae90612fd1565b80601f01602080910402602001604051908101604052809291908181526020018280546124da90612fd1565b80156125275780601f106124fc57610100808354040283529160200191612527565b820191906000526020600020905b81548152906001019060200180831161250a57829003601f168201915b5050505050815260200160028201805461254090612fd1565b80601f016020809104026020016040519081016040528092919081815260200182805461256c90612fd1565b80156125b95780601f1061258e576101008083540402835291602001916125b9565b820191906000526020600020905b81548152906001019060200180831161259c57829003601f168201915b5050505050815250508282815181106125d4576125d461318c565b60200260200101819052505b600101612330565b60006004846040516125fa9190612fb5565b90815260405190819003602001902090506002810161261984826130cc565b508061262585826130cc565b506001810161263483826130cc565b50600980546001810182556000919091527f6e1540171b6c0c960b71a7020d9f60077f6af931a8bbf590da0223dacf75c7af0161267185826130cc565b506009546040517f04e8ff42cb101b272f7393e38414646706e29fc7f910d98489f0c798046c980090611f20908790879087906131d2565b816040516020016126ba9190612fb5565b604051602081830303815290604052805190602001206001836040516126e09190612fb5565b908152604051602091819003820181206126fc92909101613005565b60405160208183030381529060405280519060200120146127745760405162461bcd60e51b815260206004820152602c60248201527f506c6163652073686f756c6420626520636f6e6e656374656420746f2065786960448201526b7374696e672063696e656d6160a01b6064820152608401610491565b60006003846040516127869190612fb5565b9081526040519081900360200190209050806127a285826130cc565b50600181016127b183826130cc565b50600281016127c084826130cc565b50600880546001810182556000919091527ff3f7a9fe364faab93b216da50a3214154f22a0a2b415b23a84c8169e8b636ee3016127fd85826130cc565b506008546040517fb450fdf7ef145bde8c09f4226862595784a06e108e9a19bbc6acba53d93a83d190611f20908790879087906131d2565b816040516020016128469190612fb5565b6040516020818303038152906040528051906020012060038360405161286c9190612fb5565b9081526040516020918190038201812061288892909101613005565b60405160208183030381529060405280519060200120146129005760405162461bcd60e51b815260206004820152602c60248201527f53637265656e2073686f756c6420626520636f6e6e656374656420746f20657860448201526b697374696e6720706c61636560a01b6064820152608401610491565b60006002846040516129129190612fb5565b90815260405190819003602001902090508061292e85826130cc565b506001810161293d83826130cc565b506002810161294c84826130cc565b50600780546001810182556000919091527fa66cc928b5edb82af9bd49922954155ab7b0942694bea4ce44661d9a8736c6880161298985826130cc565b506007546040517f3c8baa5934b9a2ccc0f7e8146197140be38687e3f09ec06c45bfb297ccc6003b90611f20908790879087906131d2565b60006005836040516129d39190612fb5565b9081526040519081900360200190209050806129ef84826130cc565b50600181016129fe83826130cc565b50600a80546001810182556000919091527fc65a7bb8d6351c1cf70c95a316cc6a92839c986682d98bc35f958f4883f9d2a801612a3b84826130cc565b50600a546040517fd7accb00266cbde0d23f2017eadc4ec74b4e15347380b803be10cfe6102e50f190612a719086908690613215565b60405180910390a2505050565b634e487b7160e01b600052604160045260246000fd5b600082601f830112612aa557600080fd5b813567ffffffffffffffff80821115612ac057612ac0612a7e565b604051601f8301601f19908116603f01168101908282118183101715612ae857612ae8612a7e565b81604052838152866020858801011115612b0157600080fd5b836020870160208301376000602085830101528094505050505092915050565b60008060408385031215612b3457600080fd5b823567ffffffffffffffff80821115612b4c57600080fd5b612b5886838701612a94565b93506020850135915080821115612b6e57600080fd5b50612b7b85828601612a94565b9150509250929050565b60005b83811015612ba0578181015183820152602001612b88565b50506000910152565b60008151808452612bc1816020860160208601612b85565b601f01601f19169290920160200192915050565b6000815160608452612bea6060850182612ba9565b905060208301518482036020860152612c038282612ba9565b91505060408301518482036040860152612c1d8282612ba9565b95945050505050565b600060208083016020845280855180835260408601915060408160051b87010192506020870160005b82811015612c7d57603f19888603018452612c6b858351612bd5565b94509285019290850190600101612c4f565b5092979650505050505050565b600060208284031215612c9c57600080fd5b813567ffffffffffffffff811115612cb357600080fd5b612cbf84828501612a94565b949350505050565b6000815160808452612cdc6080850182612ba9565b905060208301518482036020860152612cf58282612ba9565b91505060408301518482036040860152612d0f8282612ba9565b6060948501516001600160a01b03169590940194909452509092915050565b602081526000612d416020830184612cc7565b9392505050565b6000815160408452612d5d6040850182612ba9565b905060208301518482036020860152612c1d8282612ba9565b600060208083016020845280855180835260408601915060408160051b87010192506020870160005b82811015612c7d57603f19888603018452612dbb858351612d48565b94509285019290850190600101612d9f565b6001600160a01b0381168114612de257600080fd5b50565b600060208284031215612df757600080fd5b8135612d4181612dcd565b600060208083016020845280855180835260408601915060408160051b87010192506020870160005b82811015612c7d57603f19888603018452612e47858351612bd5565b94509285019290850190600101612e2b565b602081526000612d416020830184612bd5565b602081526000612d416020830184612d48565b600060208083016020845280855180835260408601915060408160051b87010192506020870160005b82811015612c7d57603f19888603018452612ec4858351612cc7565b94509285019290850190600101612ea8565b600080600060608486031215612eeb57600080fd5b833567ffffffffffffffff80821115612f0357600080fd5b612f0f87838801612a94565b94506020860135915080821115612f2557600080fd5b612f3187838801612a94565b93506040860135915080821115612f4757600080fd5b50612f5486828701612a94565b9150509250925092565b600060208083016020845280855180835260408601915060408160051b87010192506020870160005b82811015612c7d57603f19888603018452612fa3858351612bd5565b94509285019290850190600101612f87565b60008251612fc7818460208701612b85565b9190910192915050565b600181811c90821680612fe557607f821691505b602082108103610c5c57634e487b7160e01b600052602260045260246000fd5b600080835461301381612fd1565b6001828116801561302b57600181146130405761306f565b60ff198416875282151583028701945061306f565b8760005260208060002060005b858110156130665781548a82015290840190820161304d565b50505082870194505b50929695505050505050565b601f8211156130c7576000816000526020600020601f850160051c810160208610156130a45750805b601f850160051c820191505b818110156130c3578281556001016130b0565b5050505b505050565b815167ffffffffffffffff8111156130e6576130e6612a7e565b6130fa816130f48454612fd1565b8461307b565b602080601f83116001811461312f57600084156131175750858301515b600019600386901b1c1916600185901b1785556130c3565b600085815260208120601f198616915b8281101561315e5788860151825594840194600190910190840161313f565b508582101561317c5787850151600019600388901b60f8161c191681555b5050505050600190811b01905550565b634e487b7160e01b600052603260045260246000fd5b602081526000612d416020830184612ba9565b6000602082840312156131c757600080fd5b8151612d4181612dcd565b6060815260006131e56060830186612ba9565b82810360208401526131f78186612ba9565b9050828103604084015261320b8185612ba9565b9695505050505050565b6040815260006132286040830185612ba9565b8281036020840152612c1d8185612ba956fea2646970667358221220f8a0bd47e3cd6bf8997428227a50eff253eaa885e22ba38508f23da7777f66a664736f6c63430008180033",
  "linkReferences": {},
  "deployedLinkReferences": {}
}